:020000040000FA
:10000000000004298312AD007F08AE002D08013ADC
:10001000031D0E282130AF00B001742883122D0873
:10002000023A031D17282230B100B2016F28831253
:100030002D08033A031D20282330B300B4016A2899
:1000400083122D08043A031D29282430B500B60177
:10005000652883122D08053A031D32282530B70084
:10006000B801602883122D08063A031D3B2826306C
:10007000B900BA015B2883122D08073A031D4428F2
:100080002730BB00BC01562883122D08083A031DF7
:100090004D283030AD00BD01512831308312AD0004
:1000A000BD0183122D08BB003D08BC0083123B0834
:1000B000B9003C08BA0083123908B7003A08B80002
:1000C00083123708B5003808B60083123508B3002C
:1000D0003608B40083123308B1003408B20083122A
:1000E0003108AF003208B00083122F08AD002E088F
:1000F000031D7D28AF01B001F12883122E08013ABB
:10010000031D86280130B100B201EC2883122E08AD
:10011000023A031D8F280230B300B401E72883128E
:100120002E08033A031D98280330B500B601E228D3
:1001300083122E08043A031DA1280430B700B80129
:10014000DD2883122E08053A031DAA280530B900C0
:10015000BA01D82883122E08063A031DB3280630A8
:10016000BB00BC01D32883122E08073A031DBC280C
:100170000730BD00BE01CE2883122E08083A031DA9
:10018000C5280830AE00BF01C92811308312AE0067
:10019000BF0183122E08BD003F08BE0083123D0838
:1001A000BB003E08BC0083123B08B9003C08BA0003
:1001B00083123908B7003A08B80083123708B5002F
:1001C0003808B60083123508B3003608B40083122D
:1001D0003308B1003408B20083123108AF0032088E
:1001E000B00083122F08AE002D08831285000A305C
:1001F000FF000030922383122E08831285000A30FC
:10020000FF000030922308006B30FE000430FF0036
:100210008030000000007123000000008316000001
:10022000AF007F08AE006D30B0000430B10083161F
:1002300000002E08B2002F08B300FF30AE07031CE9
:10024000AF033308320403199C2904303007B2008D
:10025000B301B30D3108B3073208FE003308FF00C5
:1002600080300000000071230000000083160000B1
:10027000B5007F08B4003008FE003108FF00803070
:100280000000000071230000000083160000B7008A
:10029000B3007F08B200B60002303007B200B301ED
:1002A000B30D3108B3073208FE003308FF00803079
:1002B0000000000071230000000083160000B3005E
:1002C000B9007F08B800B200831600003408B800F7
:1002D0003508B900FF30B407031CB50339083804EA
:1002E000031995293608FE003708FF00803000000A
:1002F00000005E230000000083160000B8003208F2
:1003000083120313840083138316000033188317AA
:10031000380883120313800083160000B60A0319FD
:10032000B70AB20A0319B30A64290630831600001B
:10033000B0070318B10A172900000000852A080039
:1003400083120000C5007F0883120000C8008312DA
:100350000000C4007E08C7007D0883120000CA00A8
:1003600083120000C600450883120000C9008312F2
:100370000000470883120000CB00831200004808E9
:1003800083120000C400831200004A088312000098
:10039000C500FF00440800000000BE23000000006C
:1003A00083120000C5007F08C40083120000CC0047
:1003B00083120000450883120000CD008312000064
:1003C000C40083120000480883120000C500831295
:1003D00000004B0883120000C600FF004508000023
:1003E0000000BE23000000007F0883120000C5004B
:1003F00083120000490883120000C6008312000027
:100400004A0883120000C700FF00460800000000F1
:10041000BE23000000007F0883120000C600C5074D
:100420004508C407440883120000CD004C0883121D
:100430000000C400831200004D0883120000C500B4
:100440004408FF004508080083120000E5007F080B
:10045000E4007E08E7007D08E6000314E51F0310B2
:10046000E801E80D680803193D2A6409E9006509F7
:10047000EA00E90A0319EA0A432A83120000640821
:10048000E9006508EA00831200006908E4006A08D0
:10049000E5000314E71F0310031C562A6609E90050
:1004A0006709EA00E90A0319EA0A5C2A83120000D4
:1004B0006608E9006708EA00831200006908E600A0
:1004C000FD006A08E700FE006408FF006508000000
:1004D0000000D7220000000083120000E5007F0822
:1004E000E400680803197F2A6409E8006509E6004A
:1004F000E80A0319E60A6808FF006608842A8312DE
:1005000000006408FF0065080800083083168500B5
:100510008312850183169F018312A001A10183121A
:10052000851DB22A83122108031DB22A3230FF0032
:10053000003092238312851DB22A01308312A1005C
:10054000A00A0B3020020318AC2A4D248312A2000B
:100550008312C200C301B22A63308312C200C301F6
:100560008312A00183128519B72A8312A1010A30D0
:10057000FD000030FE0083124208FF0043082423E0
:100580008312A3007F08A200A4000A30FD000030FF
:10059000FE0083124208FF004308D7228312A30003
:1005A0007F08A200FF00240802208F2A080083127F
:1005B0000000D7007F08D6007E08D9007D08D8004B
:1005C000DA01DB018312000059088039031D013074
:1005D000DC005C08031D032B0310D80DD90D59084E
:1005E0005702031DF52A580856020318FD2A031066
:1005F00083120000D90CD80C032B83120000DB0AF5
:100600005B08DA00E22A8312000059085702031D32
:100610000B2B58085602031C152B83120000580898
:10062000D6025908031C590FD70203108312000089
:10063000D90CD80C5A08DB00DA035B08031D032B26
:100640005608FF005708080083120000CF007F08FB
:10065000CE007E08D1007D08D000D201D301103039
:10066000D400831200004F088039031D0130D500EB
:100670000310CE0DCF0D0310D20DD30D5508031D61
:10068000521451085302031D472B50085202031CF9
:10069000522B831200005008D2025108031C510F44
:1006A000D3024E14831200005403D500D400550821
:1006B000031D312B4E08FF004F080800003A0319B4
:1006C000652B803A03196C2B00347E088400831359
:1006D0007F188317000808007F088A007E088200C0
:1006E0000800003A0319792B803A0319832BFF0184
:1006F00000347E08840083137F1883170008FF00EE
:10070000840A00080800000000006C23FD00FE0FB2
:10071000FF03FF0A000000006C23FC007D08FF00BF
:100720007C0808008312A6007F08A500A701A80185
:10073000831226082802031D9F2B25082702031871
:10074000BD2BFA308312A900AA01FF3083122907BA
:10075000AB00FF30AC002A0803182A0FAC072B08A7
:10076000A9002C08AA002C082B04031DA52B0000AF
:100770008312A70A0319A80A982B08008312000005
:10078000DD007F08DE00DF01E001E10108308312B7
:10079000000061020318E32B0310DF0DE00DDD1FE5
:1007A000DA2B0030E3005E08E200DF07630803187D
:1007B000630FE007831200005D08E2000310620D82
:1007C000DD00E10AC62B831200005F08FF0060080D
:1007D000080083160000A9007F08AA002908AB00C2
:1007E000A900AC012A08AB00AD01AB1BAD032B087F
:1007F000FD002D08FE002908FF002C080000000065
:10080000A0210000000083160000AA007F08A900B4
:10081000FF002A08080083160000A200A0007F083D
:10082000A100A301A21BA3032108A000A401A01BF7
:10083000A4032008FD002408FE002208FF0023086E
:1008400000000000A0210000000083160000A100AD
:100850007F08A000FF002108080083160000A50003
:100860007F08A6002508A700A500A801A51BA803CE
:100870002608A700FD000030FE002508FF0028081C
:1008800000000000A0210000000083160000A60068
:100890007F08A500FF002608080083126B0883125A
:1008A000C000FF0005300B247F088312C000033016
:1008B00040078312EB008312C000C1016430FD00C9
:1008C0000030FE004008FF00003024228312C100E7
:1008D0007F08C000080002340034793404346B34DB
:1008E0000034013400347A3404346C34003401347C
:0608F00000347B340034EB
:02400E00D73F9A
:00000001FF
